{
  "_format": "hh-sol-artifact-1",
  "contractName": "ERC1155",
  "sourceName": "contracts/ERC1155.sol",
  "abi": [
    {
      "anonymous": false,
      "inputs": [
        {
          "indexed": true,
          "internalType": "address",
          "name": "_owner",
          "type": "address"
        },
        {
          "indexed": true,
          "internalType": "address",
          "name": "_operator",
          "type": "address"
        },
        {
          "indexed": false,
          "internalType": "bool",
          "name": "_approved",
          "type": "bool"
        }
      ],
      "name": "ApprovalForAll",
      "type": "event"
    },
    {
      "anonymous": false,
      "inputs": [
        {
          "indexed": true,
          "internalType": "address",
          "name": "_operator",
          "type": "address"
        },
        {
          "indexed": true,
          "internalType": "address",
          "name": "_from",
          "type": "address"
        },
        {
          "indexed": true,
          "internalType": "address",
          "name": "_to",
          "type": "address"
        },
        {
          "indexed": false,
          "internalType": "uint256[]",
          "name": "_ids",
          "type": "uint256[]"
        },
        {
          "indexed": false,
          "internalType": "uint256[]",
          "name": "_values",
          "type": "uint256[]"
        }
      ],
      "name": "TransferBatch",
      "type": "event"
    },
    {
      "anonymous": false,
      "inputs": [
        {
          "indexed": true,
          "internalType": "address",
          "name": "_operator",
          "type": "address"
        },
        {
          "indexed": true,
          "internalType": "address",
          "name": "_from",
          "type": "address"
        },
        {
          "indexed": true,
          "internalType": "address",
          "name": "_to",
          "type": "address"
        },
        {
          "indexed": false,
          "internalType": "uint256",
          "name": "_id",
          "type": "uint256"
        },
        {
          "indexed": false,
          "internalType": "uint256",
          "name": "_value",
          "type": "uint256"
        }
      ],
      "name": "TransferSingle",
      "type": "event"
    },
    {
      "inputs": [
        {
          "internalType": "address",
          "name": "account",
          "type": "address"
        },
        {
          "internalType": "uint256",
          "name": "id",
          "type": "uint256"
        }
      ],
      "name": "balanceOf",
      "outputs": [
        {
          "internalType": "uint256",
          "name": "",
          "type": "uint256"
        }
      ],
      "stateMutability": "view",
      "type": "function"
    },
    {
      "inputs": [
        {
          "internalType": "address[]",
          "name": "accounts",
          "type": "address[]"
        },
        {
          "internalType": "uint256[]",
          "name": "ids",
          "type": "uint256[]"
        }
      ],
      "name": "balanceOfBatch",
      "outputs": [
        {
          "internalType": "uint256[]",
          "name": "",
          "type": "uint256[]"
        }
      ],
      "stateMutability": "view",
      "type": "function"
    },
    {
      "inputs": [
        {
          "internalType": "address",
          "name": "account",
          "type": "address"
        },
        {
          "internalType": "address",
          "name": "operator",
          "type": "address"
        }
      ],
      "name": "isApprovedForAll",
      "outputs": [
        {
          "internalType": "bool",
          "name": "",
          "type": "bool"
        }
      ],
      "stateMutability": "view",
      "type": "function"
    },
    {
      "inputs": [
        {
          "internalType": "address",
          "name": "from",
          "type": "address"
        },
        {
          "internalType": "address",
          "name": "to",
          "type": "address"
        },
        {
          "internalType": "uint256[]",
          "name": "ids",
          "type": "uint256[]"
        },
        {
          "internalType": "uint256[]",
          "name": "amounts",
          "type": "uint256[]"
        }
      ],
      "name": "safeBatchTransferFrom",
      "outputs": [],
      "stateMutability": "nonpayable",
      "type": "function"
    },
    {
      "inputs": [
        {
          "internalType": "address",
          "name": "from",
          "type": "address"
        },
        {
          "internalType": "address",
          "name": "to",
          "type": "address"
        },
        {
          "internalType": "uint256",
          "name": "id",
          "type": "uint256"
        },
        {
          "internalType": "uint256",
          "name": "amount",
          "type": "uint256"
        }
      ],
      "name": "safeTransferFrom",
      "outputs": [],
      "stateMutability": "nonpayable",
      "type": "function"
    },
    {
      "inputs": [
        {
          "internalType": "address",
          "name": "operator",
          "type": "address"
        },
        {
          "internalType": "bool",
          "name": "approved",
          "type": "bool"
        }
      ],
      "name": "setApprovalForAll",
      "outputs": [],
      "stateMutability": "nonpayable",
      "type": "function"
    },
    {
      "inputs": [
        {
          "internalType": "bytes4",
          "name": "interfaceId",
          "type": "bytes4"
        }
      ],
      "name": "supportsInterface",
      "outputs": [
        {
          "internalType": "bool",
          "name": "",
          "type": "bool"
        }
      ],
      "stateMutability": "pure",
      "type": "function"
    }
  ],
  "bytecode": "0x608060405234801561001057600080fd5b506116f1806100206000396000f3fe608060405234801561001057600080fd5b506004361061007c5760003560e01c80634e1273f41161005b5780634e1273f4146100fd578063a22cb4651461012d578063e985e9c514610149578063fba0ee64146101795761007c565b8062fdd58e1461008157806301ffc9a7146100b15780630febdd49146100e1575b600080fd5b61009b60048036038101906100969190610eb1565b610195565b6040516100a8919061122b565b60405180910390f35b6100cb60048036038101906100c69190610f59565b61025e565b6040516100d89190611150565b60405180910390f35b6100fb60048036038101906100f69190610e12565b610290565b005b61011760048036038101906101129190610eed565b610456565b60405161012491906110f7565b60405180910390f35b61014760048036038101906101429190610e75565b610609565b005b610163600480360381019061015e9190610d43565b610706565b6040516101709190611150565b60405180910390f35b610193600480360381019061018e9190610d7f565b61079a565b005b60008073ffffffffffffffffffffffffffffffffffffffff168373ffffffffffffffffffffffffffffffffffffffff161415610206576040517f08c379a00000000000000000000000000000000000000000000000000000000081526004016101fd9061120b565b60405180910390fd5b60008083815260200190815260200160002060008473ffffffffffffffffffffffffffffffffffffffff1673ffffffffffffffffffffffffffffffffffffffff16815260200190815260200160002054905092915050565b600063d9b67a2660e01b827bffffffffffffffffffffffffffffffffffffffffffffffffffffffff1916149050919050565b3373ffffffffffffffffffffffffffffffffffffffff168473ffffffffffffffffffffffffffffffffffffffff1614806102d057506102cf8433610706565b5b61030f576040517f08c379a0000000000000000000000000000000000000000000000000000000008152600401610306906111eb565b60405180910390fd5b600073ffffffffffffffffffffffffffffffffffffffff168373ffffffffffffffffffffffffffffffffffffffff16141561037f576040517f08c379a00000000000000000000000000000000000000000000000000000000081526004016103769061120b565b60405180910390fd5b61038b84848484610a4e565b8273ffffffffffffffffffffffffffffffffffffffff168473ffffffffffffffffffffffffffffffffffffffff163373ffffffffffffffffffffffffffffffffffffffff167fc3d58168c5ae7397731d063d5bbf3d657854427343f4c083240f7aacaa2d0f628585604051610401929190611246565b60405180910390a4610411610bb1565b610450576040517f08c379a00000000000000000000000000000000000000000000000000000000081526004016104479061116b565b60405180910390fd5b50505050565b6060815183511461049c576040517f08c379a0000000000000000000000000000000000000000000000000000000008152600401610493906111ab565b60405180910390fd5b6000835167ffffffffffffffff8111156104df577f4e487b7100000000000000000000000000000000000000000000000000000000600052604160045260246000fd5b60405190808252806020026020018201604052801561050d5781602001602082028036833780820191505090505b50905060005b84518110156105fe576105a6858281518110610558577f4e487b7100000000000000000000000000000000000000000000000000000000600052603260045260246000fd5b6020026020010151858381518110610599577f4e487b7100000000000000000000000000000000000000000000000000000000600052603260045260246000fd5b6020026020010151610195565b8282815181106105df577f4e487b7100000000000000000000000000000000000000000000000000000000600052603260045260246000fd5b60200260200101818152505080806105f690611465565b915050610513565b508091505092915050565b80600160003373ffffffffffffffffffffffffffffffffffffffff1673ffffffffffffffffffffffffffffffffffffffff16815260200190815260200160002060008473ffffffffffffffffffffffffffffffffffffffff1673ffffffffffffffffffffffffffffffffffffffff16815260200190815260200160002060006101000a81548160ff0219169083151502179055508173ffffffffffffffffffffffffffffffffffffffff163373ffffffffffffffffffffffffffffffffffffffff167f17307eab39ab6107e8899845ad3d59bd9653f200f220920489ca2b5937696c31836040516106fa9190611150565b60405180910390a35050565b6000600160008473ffffffffffffffffffffffffffffffffffffffff1673ffffffffffffffffffffffffffffffffffffffff16815260200190815260200160002060008373ffffffffffffffffffffffffffffffffffffffff1673ffffffffffffffffffffffffffffffffffffffff16815260200190815260200160002060009054906101000a900460ff16905092915050565b3373ffffffffffffffffffffffffffffffffffffffff168473ffffffffffffffffffffffffffffffffffffffff1614806107da57506107d98433610706565b5b610819576040517f08c379a0000000000000000000000000000000000000000000000000000000008152600401610810906111eb565b60405180910390fd5b600073ffffffffffffffffffffffffffffffffffffffff168373ffffffffffffffffffffffffffffffffffffffff161415610889576040517f08c379a00000000000000000000000000000000000000000000000000000000081526004016108809061120b565b60405180910390fd5b80518251146108cd576040517f08c379a00000000000000000000000000000000000000000000000000000000081526004016108c4906111cb565b60405180910390fd5b60005b8251811015610982576000838281518110610914577f4e487b7100000000000000000000000000000000000000000000000000000000600052603260045260246000fd5b602002602001015190506000838381518110610959577f4e487b7100000000000000000000000000000000000000000000000000000000600052603260045260246000fd5b6020026020010151905061096f87878484610a4e565b50508061097b90611465565b90506108d0565b508273ffffffffffffffffffffffffffffffffffffffff168473ffffffffffffffffffffffffffffffffffffffff163373ffffffffffffffffffffffffffffffffffffffff167f4a39dc06d4c0dbc64b70af90fd698a233a518aa5d07e595d983b8c0526c8f7fb85856040516109f9929190611119565b60405180910390a4610a09610bba565b610a48576040517f08c379a0000000000000000000000000000000000000000000000000000000008152600401610a3f9061116b565b60405180910390fd5b50505050565b600080600084815260200190815260200160002060008673ffffffffffffffffffffffffffffffffffffffff1673ffffffffffffffffffffffffffffffffffffffff16815260200190815260200160002054905081811015610ae5576040517f08c379a0000000000000000000000000000000000000000000000000000000008152600401610adc9061118b565b60405180910390fd5b8181610af1919061138c565b60008085815260200190815260200160002060008773ffffffffffffffffffffffffffffffffffffffff1673ffffffffffffffffffffffffffffffffffffffff168152602001908152602001600020819055508160008085815260200190815260200160002060008673ffffffffffffffffffffffffffffffffffffffff1673ffffffffffffffffffffffffffffffffffffffff1681526020019081526020016000206000828254610ba39190611336565b925050819055505050505050565b60006001905090565b60006001905090565b6000610bd6610bd184611294565b61126f565b90508083825260208201905082856020860282011115610bf557600080fd5b60005b85811015610c255781610c0b8882610c9b565b845260208401935060208301925050600181019050610bf8565b5050509392505050565b6000610c42610c3d846112c0565b61126f565b90508083825260208201905082856020860282011115610c6157600080fd5b60005b85811015610c915781610c778882610d2e565b845260208401935060208301925050600181019050610c64565b5050509392505050565b600081359050610caa8161165f565b92915050565b600082601f830112610cc157600080fd5b8135610cd1848260208601610bc3565b91505092915050565b600082601f830112610ceb57600080fd5b8135610cfb848260208601610c2f565b91505092915050565b600081359050610d1381611676565b92915050565b600081359050610d288161168d565b92915050565b600081359050610d3d816116a4565b92915050565b60008060408385031215610d5657600080fd5b6000610d6485828601610c9b565b9250506020610d7585828601610c9b565b9150509250929050565b60008060008060808587031215610d9557600080fd5b6000610da387828801610c9b565b9450506020610db487828801610c9b565b935050604085013567ffffffffffffffff811115610dd157600080fd5b610ddd87828801610cda565b925050606085013567ffffffffffffffff811115610dfa57600080fd5b610e0687828801610cda565b91505092959194509250565b60008060008060808587031215610e2857600080fd5b6000610e3687828801610c9b565b9450506020610e4787828801610c9b565b9350506040610e5887828801610d2e565b9250506060610e6987828801610d2e565b91505092959194509250565b60008060408385031215610e8857600080fd5b6000610e9685828601610c9b565b9250506020610ea785828601610d04565b9150509250929050565b60008060408385031215610ec457600080fd5b6000610ed285828601610c9b565b9250506020610ee385828601610d2e565b9150509250929050565b60008060408385031215610f0057600080fd5b600083013567ffffffffffffffff811115610f1a57600080fd5b610f2685828601610cb0565b925050602083013567ffffffffffffffff811115610f4357600080fd5b610f4f85828601610cda565b9150509250929050565b600060208284031215610f6b57600080fd5b6000610f7984828501610d19565b91505092915050565b6000610f8e83836110d9565b60208301905092915050565b6000610fa5826112fc565b610faf8185611314565b9350610fba836112ec565b8060005b83811015610feb578151610fd28882610f82565b9750610fdd83611307565b925050600181019050610fbe565b5085935050505092915050565b611001816113d2565b82525050565b6000611014601c83611325565b915061101f8261151d565b602082019050919050565b6000611037601483611325565b915061104282611546565b602082019050919050565b600061105a602883611325565b91506110658261156f565b604082019050919050565b600061107d602083611325565b9150611088826115be565b602082019050919050565b60006110a0603483611325565b91506110ab826115e7565b604082019050919050565b60006110c3600f83611325565b91506110ce82611636565b602082019050919050565b6110e28161142a565b82525050565b6110f18161142a565b82525050565b600060208201905081810360008301526111118184610f9a565b905092915050565b600060408201905081810360008301526111338185610f9a565b905081810360208301526111478184610f9a565b90509392505050565b60006020820190506111656000830184610ff8565b92915050565b6000602082019050818103600083015261118481611007565b9050919050565b600060208201905081810360008301526111a48161102a565b9050919050565b600060208201905081810360008301526111c48161104d565b9050919050565b600060208201905081810360008301526111e481611070565b9050919050565b6000602082019050818103600083015261120481611093565b9050919050565b60006020820190508181036000830152611224816110b6565b9050919050565b600060208201905061124060008301846110e8565b92915050565b600060408201905061125b60008301856110e8565b61126860208301846110e8565b9392505050565b600061127961128a565b90506112858282611434565b919050565b6000604051905090565b600067ffffffffffffffff8211156112af576112ae6114dd565b5b602082029050602081019050919050565b600067ffffffffffffffff8211156112db576112da6114dd565b5b602082029050602081019050919050565b6000819050602082019050919050565b600081519050919050565b6000602082019050919050565b600082825260208201905092915050565b600082825260208201905092915050565b60006113418261142a565b915061134c8361142a565b9250827fffffffffffffffffffffffffffffffffffffffffffffffffffffffffffffffff03821115611381576113806114ae565b5b828201905092915050565b60006113978261142a565b91506113a28361142a565b9250828210156113b5576113b46114ae565b5b828203905092915050565b60006113cb8261140a565b9050919050565b60008115159050919050565b60007fffffffff0000000000000000000000000000000000000000000000000000000082169050919050565b600073ffffffffffffffffffffffffffffffffffffffff82169050919050565b6000819050919050565b61143d8261150c565b810181811067ffffffffffffffff8211171561145c5761145b6114dd565b5b80604052505050565b60006114708261142a565b91507fffffffffffffffffffffffffffffffffffffffffffffffffffffffffffffffff8214156114a3576114a26114ae565b5b600182019050919050565b7f4e487b7100000000000000000000000000000000000000000000000000000000600052601160045260246000fd5b7f4e487b7100000000000000000000000000000000000000000000000000000000600052604160045260246000fd5b6000601f19601f8301169050919050565b7f526563656965766572206973206e6f7420696d706c656d656e74656400000000600082015250565b7f496e73756666696369656e742062616c616e6365000000000000000000000000600082015250565b7f4163636f756e747320616e642049447320617265206e6f74207468652073616d60008201527f65206c656e677468000000000000000000000000000000000000000000000000602082015250565b7f49447320616e6420616d6f756e747320617265206e6f74207468652073616d65600082015250565b7f6d73672e73656e646572206973206e6f7420746865206f776e6572206f72206160008201527f7070726f76656420666f72207472616e73666572000000000000000000000000602082015250565b7f41646472657373206973207a65726f0000000000000000000000000000000000600082015250565b611668816113c0565b811461167357600080fd5b50565b61167f816113d2565b811461168a57600080fd5b50565b611696816113de565b81146116a157600080fd5b50565b6116ad8161142a565b81146116b857600080fd5b5056fea2646970667358221220eaff9dc71b42db5b617293a5112db5d1e1740a5dc6ea9a3672eda9813abce5e364736f6c63430008020033",
  "linkReferences": {},
  "deployedLinkReferences": {}
}