{
  "_format": "hh-sol-artifact-1",
  "contractName": "SuperMarioWorldERC1155",
  "sourceName": "contracts/SuperMarioWorldERC1155.sol",
  "abi": [
    {
      "inputs": [
        {
          "internalType": "string",
          "name": "_name",
          "type": "string"
        },
        {
          "internalType": "string",
          "name": "_symbol",
          "type": "string"
        }
      ],
      "stateMutability": "nonpayable",
      "type": "constructor"
    },
    {
      "anonymous": false,
      "inputs": [
        {
          "indexed": true,
          "internalType": "address",
          "name": "_owner",
          "type": "address"
        },
        {
          "indexed": true,
          "internalType": "address",
          "name": "_operator",
          "type": "address"
        },
        {
          "indexed": false,
          "internalType": "bool",
          "name": "_approved",
          "type": "bool"
        }
      ],
      "name": "ApprovalForAll",
      "type": "event"
    },
    {
      "anonymous": false,
      "inputs": [
        {
          "indexed": true,
          "internalType": "address",
          "name": "_operator",
          "type": "address"
        },
        {
          "indexed": true,
          "internalType": "address",
          "name": "_from",
          "type": "address"
        },
        {
          "indexed": true,
          "internalType": "address",
          "name": "_to",
          "type": "address"
        },
        {
          "indexed": false,
          "internalType": "uint256[]",
          "name": "_ids",
          "type": "uint256[]"
        },
        {
          "indexed": false,
          "internalType": "uint256[]",
          "name": "_values",
          "type": "uint256[]"
        }
      ],
      "name": "TransferBatch",
      "type": "event"
    },
    {
      "anonymous": false,
      "inputs": [
        {
          "indexed": true,
          "internalType": "address",
          "name": "_operator",
          "type": "address"
        },
        {
          "indexed": true,
          "internalType": "address",
          "name": "_from",
          "type": "address"
        },
        {
          "indexed": true,
          "internalType": "address",
          "name": "_to",
          "type": "address"
        },
        {
          "indexed": false,
          "internalType": "uint256",
          "name": "_id",
          "type": "uint256"
        },
        {
          "indexed": false,
          "internalType": "uint256",
          "name": "_value",
          "type": "uint256"
        }
      ],
      "name": "TransferSingle",
      "type": "event"
    },
    {
      "inputs": [
        {
          "internalType": "address",
          "name": "account",
          "type": "address"
        },
        {
          "internalType": "uint256",
          "name": "id",
          "type": "uint256"
        }
      ],
      "name": "balanceOf",
      "outputs": [
        {
          "internalType": "uint256",
          "name": "",
          "type": "uint256"
        }
      ],
      "stateMutability": "view",
      "type": "function"
    },
    {
      "inputs": [
        {
          "internalType": "address[]",
          "name": "accounts",
          "type": "address[]"
        },
        {
          "internalType": "uint256[]",
          "name": "ids",
          "type": "uint256[]"
        }
      ],
      "name": "balanceOfBatch",
      "outputs": [
        {
          "internalType": "uint256[]",
          "name": "",
          "type": "uint256[]"
        }
      ],
      "stateMutability": "view",
      "type": "function"
    },
    {
      "inputs": [
        {
          "internalType": "address",
          "name": "account",
          "type": "address"
        },
        {
          "internalType": "address",
          "name": "operator",
          "type": "address"
        }
      ],
      "name": "isApprovedForAll",
      "outputs": [
        {
          "internalType": "bool",
          "name": "",
          "type": "bool"
        }
      ],
      "stateMutability": "view",
      "type": "function"
    },
    {
      "inputs": [
        {
          "internalType": "uint256",
          "name": "amount",
          "type": "uint256"
        },
        {
          "internalType": "string",
          "name": "_uri",
          "type": "string"
        }
      ],
      "name": "mint",
      "outputs": [],
      "stateMutability": "nonpayable",
      "type": "function"
    },
    {
      "inputs": [],
      "name": "name",
      "outputs": [
        {
          "internalType": "string",
          "name": "",
          "type": "string"
        }
      ],
      "stateMutability": "view",
      "type": "function"
    },
    {
      "inputs": [
        {
          "internalType": "address",
          "name": "from",
          "type": "address"
        },
        {
          "internalType": "address",
          "name": "to",
          "type": "address"
        },
        {
          "internalType": "uint256[]",
          "name": "ids",
          "type": "uint256[]"
        },
        {
          "internalType": "uint256[]",
          "name": "amounts",
          "type": "uint256[]"
        }
      ],
      "name": "safeBatchTransferFrom",
      "outputs": [],
      "stateMutability": "nonpayable",
      "type": "function"
    },
    {
      "inputs": [
        {
          "internalType": "address",
          "name": "from",
          "type": "address"
        },
        {
          "internalType": "address",
          "name": "to",
          "type": "address"
        },
        {
          "internalType": "uint256",
          "name": "id",
          "type": "uint256"
        },
        {
          "internalType": "uint256",
          "name": "amount",
          "type": "uint256"
        }
      ],
      "name": "safeTransferFrom",
      "outputs": [],
      "stateMutability": "nonpayable",
      "type": "function"
    },
    {
      "inputs": [
        {
          "internalType": "address",
          "name": "operator",
          "type": "address"
        },
        {
          "internalType": "bool",
          "name": "approved",
          "type": "bool"
        }
      ],
      "name": "setApprovalForAll",
      "outputs": [],
      "stateMutability": "nonpayable",
      "type": "function"
    },
    {
      "inputs": [
        {
          "internalType": "bytes4",
          "name": "interfaceId",
          "type": "bytes4"
        }
      ],
      "name": "supportsInterface",
      "outputs": [
        {
          "internalType": "bool",
          "name": "",
          "type": "bool"
        }
      ],
      "stateMutability": "pure",
      "type": "function"
    },
    {
      "inputs": [],
      "name": "symbol",
      "outputs": [
        {
          "internalType": "string",
          "name": "",
          "type": "string"
        }
      ],
      "stateMutability": "view",
      "type": "function"
    },
    {
      "inputs": [],
      "name": "tokenCount",
      "outputs": [
        {
          "internalType": "uint256",
          "name": "",
          "type": "uint256"
        }
      ],
      "stateMutability": "view",
      "type": "function"
    },
    {
      "inputs": [
        {
          "internalType": "uint256",
          "name": "tokenId",
          "type": "uint256"
        }
      ],
      "name": "uri",
      "outputs": [
        {
          "internalType": "string",
          "name": "",
          "type": "string"
        }
      ],
      "stateMutability": "view",
      "type": "function"
    }
  ],
  "bytecode": "0x60806040523480156200001157600080fd5b50604051620021ae380380620021ae833981810160405281019062000037919062000193565b81600290805190602001906200004f92919062000071565b5080600390805190602001906200006892919062000071565b50505062000376565b8280546200007f906200029b565b90600052602060002090601f016020900481019282620000a35760008555620000ef565b82601f10620000be57805160ff1916838001178555620000ef565b82800160010185558215620000ef579182015b82811115620000ee578251825591602001919060010190620000d1565b5b509050620000fe919062000102565b5090565b5b808211156200011d57600081600090555060010162000103565b5090565b60006200013862000132846200022f565b62000206565b9050828152602081018484840111156200015157600080fd5b6200015e84828562000265565b509392505050565b600082601f8301126200017857600080fd5b81516200018a84826020860162000121565b91505092915050565b60008060408385031215620001a757600080fd5b600083015167ffffffffffffffff811115620001c257600080fd5b620001d08582860162000166565b925050602083015167ffffffffffffffff811115620001ee57600080fd5b620001fc8582860162000166565b9150509250929050565b60006200021262000225565b9050620002208282620002d1565b919050565b6000604051905090565b600067ffffffffffffffff8211156200024d576200024c62000336565b5b620002588262000365565b9050602081019050919050565b60005b838110156200028557808201518184015260208101905062000268565b8381111562000295576000848401525b50505050565b60006002820490506001821680620002b457607f821691505b60208210811415620002cb57620002ca62000307565b5b50919050565b620002dc8262000365565b810181811067ffffffffffffffff82111715620002fe57620002fd62000336565b5b80604052505050565b7f4e487b7100000000000000000000000000000000000000000000000000000000600052602260045260246000fd5b7f4e487b7100000000000000000000000000000000000000000000000000000000600052604160045260246000fd5b6000601f19601f8301169050919050565b611e2880620003866000396000f3fe608060405234801561001057600080fd5b50600436106100b35760003560e01c806377097fc81161007157806377097fc8146101b257806395d89b41146101ce5780639f181b5e146101ec578063a22cb4651461020a578063e985e9c514610226578063fba0ee6414610256576100b3565b8062fdd58e146100b857806301ffc9a7146100e857806306fdde03146101185780630e89341c146101365780630febdd49146101665780634e1273f414610182575b600080fd5b6100d260048036038101906100cd9190611431565b610272565b6040516100df9190611883565b60405180910390f35b61010260048036038101906100fd91906114d9565b61033b565b60405161010f9190611786565b60405180910390f35b61012061039d565b60405161012d91906117a1565b60405180910390f35b610150600480360381019061014b9190611502565b61042b565b60405161015d91906117a1565b60405180910390f35b610180600480360381019061017b9190611392565b6104d0565b005b61019c6004803603810190610197919061146d565b610696565b6040516101a9919061172d565b60405180910390f35b6101cc60048036038101906101c7919061152b565b610849565b005b6101d66109ea565b6040516101e391906117a1565b60405180910390f35b6101f4610a78565b6040516102019190611883565b60405180910390f35b610224600480360381019061021f91906113f5565b610a7e565b005b610240600480360381019061023b91906112c3565b610b7b565b60405161024d9190611786565b60405180910390f35b610270600480360381019061026b91906112ff565b610c0f565b005b60008073ffffffffffffffffffffffffffffffffffffffff168373ffffffffffffffffffffffffffffffffffffffff1614156102e3576040517f08c379a00000000000000000000000000000000000000000000000000000000081526004016102da90611863565b60405180910390fd5b60008083815260200190815260200160002060008473ffffffffffffffffffffffffffffffffffffffff1673ffffffffffffffffffffffffffffffffffffffff16815260200190815260200160002054905092915050565b600063d9b67a2660e01b827bffffffffffffffffffffffffffffffffffffffffffffffffffffffff191614806103965750630e89341c60e01b827bffffffffffffffffffffffffffffffffffffffffffffffffffffffff1916145b9050919050565b600280546103aa90611b0a565b80601f01602080910402602001604051908101604052809291908181526020018280546103d690611b0a565b80156104235780601f106103f857610100808354040283529160200191610423565b820191906000526020600020905b81548152906001019060200180831161040657829003601f168201915b505050505081565b606060056000838152602001908152602001600020805461044b90611b0a565b80601f016020809104026020016040519081016040528092919081815260200182805461047790611b0a565b80156104c45780601f10610499576101008083540402835291602001916104c4565b820191906000526020600020905b8154815290600101906020018083116104a757829003601f168201915b50505050509050919050565b3373ffffffffffffffffffffffffffffffffffffffff168473ffffffffffffffffffffffffffffffffffffffff161480610510575061050f8433610b7b565b5b61054f576040517f08c379a000000000000000000000000000000000000000000000000000000000815260040161054690611843565b60405180910390fd5b600073ffffffffffffffffffffffffffffffffffffffff168373ffffffffffffffffffffffffffffffffffffffff1614156105bf576040517f08c379a00000000000000000000000000000000000000000000000000000000081526004016105b690611863565b60405180910390fd5b6105cb84848484610ec3565b8273ffffffffffffffffffffffffffffffffffffffff168473ffffffffffffffffffffffffffffffffffffffff163373ffffffffffffffffffffffffffffffffffffffff167fc3d58168c5ae7397731d063d5bbf3d657854427343f4c083240f7aacaa2d0f62858560405161064192919061189e565b60405180910390a4610651611026565b610690576040517f08c379a0000000000000000000000000000000000000000000000000000000008152600401610687906117c3565b60405180910390fd5b50505050565b606081518351146106dc576040517f08c379a00000000000000000000000000000000000000000000000000000000081526004016106d390611803565b60405180910390fd5b6000835167ffffffffffffffff81111561071f577f4e487b7100000000000000000000000000000000000000000000000000000000600052604160045260246000fd5b60405190808252806020026020018201604052801561074d5781602001602082028036833780820191505090505b50905060005b845181101561083e576107e6858281518110610798577f4e487b7100000000000000000000000000000000000000000000000000000000600052603260045260246000fd5b60200260200101518583815181106107d9577f4e487b7100000000000000000000000000000000000000000000000000000000600052603260045260246000fd5b6020026020010151610272565b82828151811061081f577f4e487b7100000000000000000000000000000000000000000000000000000000600052603260045260246000fd5b602002602001018181525050808061083690611b6d565b915050610753565b508091505092915050565b600073ffffffffffffffffffffffffffffffffffffffff163373ffffffffffffffffffffffffffffffffffffffff1614156108b9576040517f08c379a00000000000000000000000000000000000000000000000000000000081526004016108b090611863565b60405180910390fd5b6001600460008282546108cc91906119ca565b9250508190555081600080600454815260200190815260200160002060003373ffffffffffffffffffffffffffffffffffffffff1673ffffffffffffffffffffffffffffffffffffffff168152602001908152602001600020600082825461093491906119ca565b92505081905550806005600060045481526020019081526020016000209080519060200190610964929190611038565b503373ffffffffffffffffffffffffffffffffffffffff16600073ffffffffffffffffffffffffffffffffffffffff163373ffffffffffffffffffffffffffffffffffffffff167fc3d58168c5ae7397731d063d5bbf3d657854427343f4c083240f7aacaa2d0f62600454866040516109de92919061189e565b60405180910390a45050565b600380546109f790611b0a565b80601f0160208091040260200160405190810160405280929190818152602001828054610a2390611b0a565b8015610a705780601f10610a4557610100808354040283529160200191610a70565b820191906000526020600020905b815481529060010190602001808311610a5357829003601f168201915b505050505081565b60045481565b80600160003373ffffffffffffffffffffffffffffffffffffffff1673ffffffffffffffffffffffffffffffffffffffff16815260200190815260200160002060008473ffffffffffffffffffffffffffffffffffffffff1673ffffffffffffffffffffffffffffffffffffffff16815260200190815260200160002060006101000a81548160ff0219169083151502179055508173ffffffffffffffffffffffffffffffffffffffff163373ffffffffffffffffffffffffffffffffffffffff167f17307eab39ab6107e8899845ad3d59bd9653f200f220920489ca2b5937696c3183604051610b6f9190611786565b60405180910390a35050565b6000600160008473ffffffffffffffffffffffffffffffffffffffff1673ffffffffffffffffffffffffffffffffffffffff16815260200190815260200160002060008373ffffffffffffffffffffffffffffffffffffffff1673ffffffffffffffffffffffffffffffffffffffff16815260200190815260200160002060009054906101000a900460ff16905092915050565b3373ffffffffffffffffffffffffffffffffffffffff168473ffffffffffffffffffffffffffffffffffffffff161480610c4f5750610c4e8433610b7b565b5b610c8e576040517f08c379a0000000000000000000000000000000000000000000000000000000008152600401610c8590611843565b60405180910390fd5b600073ffffffffffffffffffffffffffffffffffffffff168373ffffffffffffffffffffffffffffffffffffffff161415610cfe576040517f08c379a0000000000000000000000000000000000000000000000000000000008152600401610cf590611863565b60405180910390fd5b8051825114610d42576040517f08c379a0000000000000000000000000000000000000000000000000000000008152600401610d3990611823565b60405180910390fd5b60005b8251811015610df7576000838281518110610d89577f4e487b7100000000000000000000000000000000000000000000000000000000600052603260045260246000fd5b602002602001015190506000838381518110610dce577f4e487b7100000000000000000000000000000000000000000000000000000000600052603260045260246000fd5b60200260200101519050610de487878484610ec3565b505080610df090611b6d565b9050610d45565b508273ffffffffffffffffffffffffffffffffffffffff168473ffffffffffffffffffffffffffffffffffffffff163373ffffffffffffffffffffffffffffffffffffffff167f4a39dc06d4c0dbc64b70af90fd698a233a518aa5d07e595d983b8c0526c8f7fb8585604051610e6e92919061174f565b60405180910390a4610e7e61102f565b610ebd576040517f08c379a0000000000000000000000000000000000000000000000000000000008152600401610eb4906117c3565b60405180910390fd5b50505050565b600080600084815260200190815260200160002060008673ffffffffffffffffffffffffffffffffffffffff1673ffffffffffffffffffffffffffffffffffffffff16815260200190815260200160002054905081811015610f5a576040517f08c379a0000000000000000000000000000000000000000000000000000000008152600401610f51906117e3565b60405180910390fd5b8181610f669190611a20565b60008085815260200190815260200160002060008773ffffffffffffffffffffffffffffffffffffffff1673ffffffffffffffffffffffffffffffffffffffff168152602001908152602001600020819055508160008085815260200190815260200160002060008673ffffffffffffffffffffffffffffffffffffffff1673ffffffffffffffffffffffffffffffffffffffff168152602001908152602001600020600082825461101891906119ca565b925050819055505050505050565b60006001905090565b60006001905090565b82805461104490611b0a565b90600052602060002090601f01602090048101928261106657600085556110ad565b82601f1061107f57805160ff19168380011785556110ad565b828001600101855582156110ad579182015b828111156110ac578251825591602001919060010190611091565b5b5090506110ba91906110be565b5090565b5b808211156110d75760008160009055506001016110bf565b5090565b60006110ee6110e9846118ec565b6118c7565b9050808382526020820190508285602086028201111561110d57600080fd5b60005b8581101561113d578161112388826111f1565b845260208401935060208301925050600181019050611110565b5050509392505050565b600061115a61115584611918565b6118c7565b9050808382526020820190508285602086028201111561117957600080fd5b60005b858110156111a9578161118f88826112ae565b84526020840193506020830192505060018101905061117c565b5050509392505050565b60006111c66111c184611944565b6118c7565b9050828152602081018484840111156111de57600080fd5b6111e9848285611ac8565b509392505050565b60008135905061120081611d96565b92915050565b600082601f83011261121757600080fd5b81356112278482602086016110db565b91505092915050565b600082601f83011261124157600080fd5b8135611251848260208601611147565b91505092915050565b60008135905061126981611dad565b92915050565b60008135905061127e81611dc4565b92915050565b600082601f83011261129557600080fd5b81356112a58482602086016111b3565b91505092915050565b6000813590506112bd81611ddb565b92915050565b600080604083850312156112d657600080fd5b60006112e4858286016111f1565b92505060206112f5858286016111f1565b9150509250929050565b6000806000806080858703121561131557600080fd5b6000611323878288016111f1565b9450506020611334878288016111f1565b935050604085013567ffffffffffffffff81111561135157600080fd5b61135d87828801611230565b925050606085013567ffffffffffffffff81111561137a57600080fd5b61138687828801611230565b91505092959194509250565b600080600080608085870312156113a857600080fd5b60006113b6878288016111f1565b94505060206113c7878288016111f1565b93505060406113d8878288016112ae565b92505060606113e9878288016112ae565b91505092959194509250565b6000806040838503121561140857600080fd5b6000611416858286016111f1565b92505060206114278582860161125a565b9150509250929050565b6000806040838503121561144457600080fd5b6000611452858286016111f1565b9250506020611463858286016112ae565b9150509250929050565b6000806040838503121561148057600080fd5b600083013567ffffffffffffffff81111561149a57600080fd5b6114a685828601611206565b925050602083013567ffffffffffffffff8111156114c357600080fd5b6114cf85828601611230565b9150509250929050565b6000602082840312156114eb57600080fd5b60006114f98482850161126f565b91505092915050565b60006020828403121561151457600080fd5b6000611522848285016112ae565b91505092915050565b6000806040838503121561153e57600080fd5b600061154c858286016112ae565b925050602083013567ffffffffffffffff81111561156957600080fd5b61157585828601611284565b9150509250929050565b600061158b838361170f565b60208301905092915050565b60006115a282611985565b6115ac81856119a8565b93506115b783611975565b8060005b838110156115e85781516115cf888261157f565b97506115da8361199b565b9250506001810190506115bb565b5085935050505092915050565b6115fe81611a66565b82525050565b600061160f82611990565b61161981856119b9565b9350611629818560208601611ad7565b61163281611c43565b840191505092915050565b600061164a601c836119b9565b915061165582611c54565b602082019050919050565b600061166d6014836119b9565b915061167882611c7d565b602082019050919050565b60006116906028836119b9565b915061169b82611ca6565b604082019050919050565b60006116b36020836119b9565b91506116be82611cf5565b602082019050919050565b60006116d66034836119b9565b91506116e182611d1e565b604082019050919050565b60006116f9600f836119b9565b915061170482611d6d565b602082019050919050565b61171881611abe565b82525050565b61172781611abe565b82525050565b600060208201905081810360008301526117478184611597565b905092915050565b600060408201905081810360008301526117698185611597565b9050818103602083015261177d8184611597565b90509392505050565b600060208201905061179b60008301846115f5565b92915050565b600060208201905081810360008301526117bb8184611604565b905092915050565b600060208201905081810360008301526117dc8161163d565b9050919050565b600060208201905081810360008301526117fc81611660565b9050919050565b6000602082019050818103600083015261181c81611683565b9050919050565b6000602082019050818103600083015261183c816116a6565b9050919050565b6000602082019050818103600083015261185c816116c9565b9050919050565b6000602082019050818103600083015261187c816116ec565b9050919050565b6000602082019050611898600083018461171e565b92915050565b60006040820190506118b3600083018561171e565b6118c0602083018461171e565b9392505050565b60006118d16118e2565b90506118dd8282611b3c565b919050565b6000604051905090565b600067ffffffffffffffff82111561190757611906611c14565b5b602082029050602081019050919050565b600067ffffffffffffffff82111561193357611932611c14565b5b602082029050602081019050919050565b600067ffffffffffffffff82111561195f5761195e611c14565b5b61196882611c43565b9050602081019050919050565b6000819050602082019050919050565b600081519050919050565b600081519050919050565b6000602082019050919050565b600082825260208201905092915050565b600082825260208201905092915050565b60006119d582611abe565b91506119e083611abe565b9250827fffffffffffffffffffffffffffffffffffffffffffffffffffffffffffffffff03821115611a1557611a14611bb6565b5b828201905092915050565b6000611a2b82611abe565b9150611a3683611abe565b925082821015611a4957611a48611bb6565b5b828203905092915050565b6000611a5f82611a9e565b9050919050565b60008115159050919050565b60007fffffffff0000000000000000000000000000000000000000000000000000000082169050919050565b600073ffffffffffffffffffffffffffffffffffffffff82169050919050565b6000819050919050565b82818337600083830152505050565b60005b83811015611af5578082015181840152602081019050611ada565b83811115611b04576000848401525b50505050565b60006002820490506001821680611b2257607f821691505b60208210811415611b3657611b35611be5565b5b50919050565b611b4582611c43565b810181811067ffffffffffffffff82111715611b6457611b63611c14565b5b80604052505050565b6000611b7882611abe565b91507fffffffffffffffffffffffffffffffffffffffffffffffffffffffffffffffff821415611bab57611baa611bb6565b5b600182019050919050565b7f4e487b7100000000000000000000000000000000000000000000000000000000600052601160045260246000fd5b7f4e487b7100000000000000000000000000000000000000000000000000000000600052602260045260246000fd5b7f4e487b7100000000000000000000000000000000000000000000000000000000600052604160045260246000fd5b6000601f19601f8301169050919050565b7f526563656965766572206973206e6f7420696d706c656d656e74656400000000600082015250565b7f496e73756666696369656e742062616c616e6365000000000000000000000000600082015250565b7f4163636f756e747320616e642049447320617265206e6f74207468652073616d60008201527f65206c656e677468000000000000000000000000000000000000000000000000602082015250565b7f49447320616e6420616d6f756e747320617265206e6f74207468652073616d65600082015250565b7f6d73672e73656e646572206973206e6f7420746865206f776e6572206f72206160008201527f7070726f76656420666f72207472616e73666572000000000000000000000000602082015250565b7f41646472657373206973207a65726f0000000000000000000000000000000000600082015250565b611d9f81611a54565b8114611daa57600080fd5b50565b611db681611a66565b8114611dc157600080fd5b50565b611dcd81611a72565b8114611dd857600080fd5b50565b611de481611abe565b8114611def57600080fd5b5056fea264697066735822122018834b242efa0c5e1fb2cea0e1e7ee4225582eda9865730565fd299934673f9464736f6c63430008020033",
  "linkReferences": {},
  "deployedLinkReferences": {}
}